{
  "_format": "hh-sol-artifact-1",
  "contractName": "IndyDidRegistry",
  "sourceName": "contracts/did/IndyDidRegistry.sol",
  "abi": [
    {
      "inputs": [
        {
          "internalType": "address",
          "name": "target",
          "type": "address"
        }
      ],
      "name": "AddressEmptyCode",
      "type": "error"
    },
    {
      "inputs": [
        {
          "internalType": "address",
          "name": "identity",
          "type": "address"
        }
      ],
      "name": "DidAlreadyExist",
      "type": "error"
    },
    {
      "inputs": [
        {
          "internalType": "address",
          "name": "identity",
          "type": "address"
        }
      ],
      "name": "DidHasBeenDeactivated",
      "type": "error"
    },
    {
      "inputs": [
        {
          "internalType": "address",
          "name": "identity",
          "type": "address"
        }
      ],
      "name": "DidNotFound",
      "type": "error"
    },
    {
      "inputs": [
        {
          "internalType": "address",
          "name": "implementation",
          "type": "address"
        }
      ],
      "name": "ERC1967InvalidImplementation",
      "type": "error"
    },
    {
      "inputs": [],
      "name": "ERC1967NonPayable",
      "type": "error"
    },
    {
      "inputs": [],
      "name": "FailedInnerCall",
      "type": "error"
    },
    {
      "inputs": [],
      "name": "InvalidInitialization",
      "type": "error"
    },
    {
      "inputs": [
        {
          "internalType": "address",
          "name": "actor",
          "type": "address"
        },
        {
          "internalType": "address",
          "name": "identity",
          "type": "address"
        }
      ],
      "name": "NotIdentityOwner",
      "type": "error"
    },
    {
      "inputs": [],
      "name": "NotInitializing",
      "type": "error"
    },
    {
      "inputs": [],
      "name": "UUPSUnauthorizedCallContext",
      "type": "error"
    },
    {
      "inputs": [
        {
          "internalType": "bytes32",
          "name": "slot",
          "type": "bytes32"
        }
      ],
      "name": "UUPSUnsupportedProxiableUUID",
      "type": "error"
    },
    {
      "anonymous": false,
      "inputs": [
        {
          "indexed": false,
          "internalType": "address",
          "name": "identity",
          "type": "address"
        }
      ],
      "name": "DIDCreated",
      "type": "event"
    },
    {
      "anonymous": false,
      "inputs": [
        {
          "indexed": false,
          "internalType": "address",
          "name": "identity",
          "type": "address"
        }
      ],
      "name": "DIDDeactivated",
      "type": "event"
    },
    {
      "anonymous": false,
      "inputs": [
        {
          "indexed": false,
          "internalType": "address",
          "name": "identity",
          "type": "address"
        }
      ],
      "name": "DIDUpdated",
      "type": "event"
    },
    {
      "anonymous": false,
      "inputs": [
        {
          "indexed": false,
          "internalType": "uint64",
          "name": "version",
          "type": "uint64"
        }
      ],
      "name": "Initialized",
      "type": "event"
    },
    {
      "anonymous": false,
      "inputs": [
        {
          "indexed": true,
          "internalType": "address",
          "name": "implementation",
          "type": "address"
        }
      ],
      "name": "Upgraded",
      "type": "event"
    },
    {
      "inputs": [],
      "name": "UPGRADE_INTERFACE_VERSION",
      "outputs": [
        {
          "internalType": "string",
          "name": "",
          "type": "string"
        }
      ],
      "stateMutability": "view",
      "type": "function"
    },
    {
      "inputs": [
        {
          "internalType": "address",
          "name": "identity",
          "type": "address"
        },
        {
          "internalType": "bytes",
          "name": "document",
          "type": "bytes"
        }
      ],
      "name": "createDid",
      "outputs": [],
      "stateMutability": "nonpayable",
      "type": "function"
    },
    {
      "inputs": [
        {
          "internalType": "address",
          "name": "identity",
          "type": "address"
        },
        {
          "internalType": "uint8",
          "name": "sigV",
          "type": "uint8"
        },
        {
          "internalType": "bytes32",
          "name": "sigR",
          "type": "bytes32"
        },
        {
          "internalType": "bytes32",
          "name": "sigS",
          "type": "bytes32"
        },
        {
          "internalType": "bytes",
          "name": "document",
          "type": "bytes"
        }
      ],
      "name": "createDidSigned",
      "outputs": [],
      "stateMutability": "nonpayable",
      "type": "function"
    },
    {
      "inputs": [
        {
          "internalType": "address",
          "name": "identity",
          "type": "address"
        }
      ],
      "name": "deactivateDid",
      "outputs": [],
      "stateMutability": "nonpayable",
      "type": "function"
    },
    {
      "inputs": [
        {
          "internalType": "address",
          "name": "identity",
          "type": "address"
        },
        {
          "internalType": "uint8",
          "name": "sigV",
          "type": "uint8"
        },
        {
          "internalType": "bytes32",
          "name": "sigR",
          "type": "bytes32"
        },
        {
          "internalType": "bytes32",
          "name": "sigS",
          "type": "bytes32"
        }
      ],
      "name": "deactivateDidSigned",
      "outputs": [],
      "stateMutability": "nonpayable",
      "type": "function"
    },
    {
      "inputs": [
        {
          "internalType": "address",
          "name": "upgradeControlAddress",
          "type": "address"
        },
        {
          "internalType": "address",
          "name": "roleControlContractAddress",
          "type": "address"
        }
      ],
      "name": "initialize",
      "outputs": [],
      "stateMutability": "nonpayable",
      "type": "function"
    },
    {
      "inputs": [],
      "name": "proxiableUUID",
      "outputs": [
        {
          "internalType": "bytes32",
          "name": "",
          "type": "bytes32"
        }
      ],
      "stateMutability": "view",
      "type": "function"
    },
    {
      "inputs": [
        {
          "internalType": "address",
          "name": "identity",
          "type": "address"
        }
      ],
      "name": "resolveDid",
      "outputs": [
        {
          "components": [
            {
              "internalType": "bytes",
              "name": "document",
              "type": "bytes"
            },
            {
              "components": [
                {
                  "internalType": "address",
                  "name": "owner",
                  "type": "address"
                },
                {
                  "internalType": "uint256",
                  "name": "created",
                  "type": "uint256"
                },
                {
                  "internalType": "uint256",
                  "name": "updated",
                  "type": "uint256"
                },
                {
                  "internalType": "uint256",
                  "name": "versionId",
                  "type": "uint256"
                },
                {
                  "internalType": "bool",
                  "name": "deactivated",
                  "type": "bool"
                }
              ],
              "internalType": "struct DidMetadata",
              "name": "metadata",
              "type": "tuple"
            }
          ],
          "internalType": "struct DidRecord",
          "name": "didRecord",
          "type": "tuple"
        }
      ],
      "stateMutability": "view",
      "type": "function"
    },
    {
      "inputs": [
        {
          "internalType": "address",
          "name": "identity",
          "type": "address"
        },
        {
          "internalType": "bytes",
          "name": "document",
          "type": "bytes"
        }
      ],
      "name": "updateDid",
      "outputs": [],
      "stateMutability": "nonpayable",
      "type": "function"
    },
    {
      "inputs": [
        {
          "internalType": "address",
          "name": "identity",
          "type": "address"
        },
        {
          "internalType": "uint8",
          "name": "sigV",
          "type": "uint8"
        },
        {
          "internalType": "bytes32",
          "name": "sigR",
          "type": "bytes32"
        },
        {
          "internalType": "bytes32",
          "name": "sigS",
          "type": "bytes32"
        },
        {
          "internalType": "bytes",
          "name": "document",
          "type": "bytes"
        }
      ],
      "name": "updateDidSigned",
      "outputs": [],
      "stateMutability": "nonpayable",
      "type": "function"
    },
    {
      "inputs": [
        {
          "internalType": "address",
          "name": "newImplementation",
          "type": "address"
        },
        {
          "internalType": "bytes",
          "name": "data",
          "type": "bytes"
        }
      ],
      "name": "upgradeToAndCall",
      "outputs": [],
      "stateMutability": "payable",
      "type": "function"
    }
  ],
  "bytecode": "0x60a06040523073ffffffffffffffffffffffffffffffffffffffff1660809073ffffffffffffffffffffffffffffffffffffffff1681525034801561004357600080fd5b50608051612aa161006d60003960008181610c8801528181610cdd0152610f1b0152612aa16000f3fe60806040526004361061009c5760003560e01c806385e931351161006457806385e9313514610177578063ad3cb1cc146101a0578063c041bd66146101cb578063c6569381146101f4578063d066db541461021d578063f5957944146102465761009c565b80631830eb5b146100a15780633f4f62b7146100de578063485cc955146101075780634f1ef2861461013057806352d1902d1461014c575b600080fd5b3480156100ad57600080fd5b506100c860048036038101906100c39190611ccf565b61026f565b6040516100d59190611e74565b60405180910390f35b3480156100ea57600080fd5b5061010560048036038101906101009190611f6a565b610489565b005b34801561011357600080fd5b5061012e60048036038101906101299190612004565b610529565b005b61014a60048036038101906101459190612174565b6106a3565b005b34801561015857600080fd5b506101616106c2565b60405161016e91906121df565b60405180910390f35b34801561018357600080fd5b5061019e60048036038101906101999190611ccf565b6106f5565b005b3480156101ac57600080fd5b506101b5610702565b6040516101c2919061224f565b60405180910390f35b3480156101d757600080fd5b506101f260048036038101906101ed9190612271565b61073b565b005b34801561020057600080fd5b5061021b600480360381019061021691906122d8565b6107d3565b005b34801561022957600080fd5b50610244600480360381019061023f9190611f6a565b6107e4565b005b34801561025257600080fd5b5061026d600480360381019061026891906122d8565b610884565b005b610277611bf6565b816000600260008373ffffffffffffffffffffffffffffffffffffffff1673ffffffffffffffffffffffffffffffffffffffff168152602001908152602001600020600101600101540361030257806040517f863b93fe0000000000000000000000000000000000000000000000000000000081526004016102f99190612347565b60405180910390fd5b600260008473ffffffffffffffffffffffffffffffffffffffff1673ffffffffffffffffffffffffffffffffffffffff16815260200190815260200160002060405180604001604052908160008201805461035c90612391565b80601f016020809104026020016040519081016040528092919081815260200182805461038890612391565b80156103d55780601f106103aa576101008083540402835291602001916103d5565b820191906000526020600020905b8154815290600101906020018083116103b857829003601f168201915b50505050508152602001600182016040518060a00160405290816000820160009054906101000a900473ffffffffffffffffffffffffffffffffffffffff1673ffffffffffffffffffffffffffffffffffffffff1673ffffffffffffffffffffffffffffffffffffffff1681526020016001820154815260200160028201548152602001600382015481526020016004820160009054906101000a900460ff16151515158152505081525050915050919050565b6000601960f81b600060f81b308986866040516020016104ae969594939291906124de565b60405160208183030381529060405280519060200120905061052087600183898989604051600081526020016040526040516104ed9493929190612555565b6020604051602081039080840390855afa15801561050f573d6000803e3d6000fd5b505050602060405103518585610895565b50505050505050565b60016000610535610c13565b90508060000160089054906101000a900460ff168061058057508167ffffffffffffffff168160000160009054906101000a900467ffffffffffffffff1667ffffffffffffffff1610155b156105b7576040517ff92ee8a900000000000000000000000000000000000000000000000000000000815260040160405180910390fd5b818160000160006101000a81548167ffffffffffffffff021916908367ffffffffffffffff16021790555060018160000160086101000a81548160ff02191690831515021790555061060884610c3b565b82600160006101000a81548173ffffffffffffffffffffffffffffffffffffffff021916908373ffffffffffffffffffffffffffffffffffffffff16021790555060008160000160086101000a81548160ff0219169083151502179055507fc7f505b2f371ae2175ee4913f4499e1f2633a7b5936321eed1cdaeb6115181d28260405161069591906125bd565b60405180910390a150505050565b6106ab610c86565b6106b482610d6c565b6106be8282610dfa565b5050565b60006106cc610f19565b7f360894a13ba1a3210667c828492db98dca3e2076cc3735a920a3ca505d382bbc60001b905090565b6106ff8133610fa0565b50565b6040518060400160405280600581526020017f352e302e3000000000000000000000000000000000000000000000000000000081525081565b6000601960f81b600060f81b308760405160200161075c9493929190612624565b6040516020818303038152906040528051906020012090506107cc856001838787876040516000815260200160405260405161079b9493929190612555565b6020604051602081039080840390855afa1580156107bd573d6000803e3d6000fd5b50505060206040510351610fa0565b5050505050565b6107df833384846113c1565b505050565b6000601960f81b600060f81b30898686604051602001610809969594939291906126c9565b60405160208183030381529060405280519060200120905061087b87600183898989604051600081526020016040526040516108489493929190612555565b6020604051602081039080840390855afa15801561086a573d6000803e3d6000fd5b5050506020604051035185856113c1565b50505050505050565b61089083338484610895565b505050565b836000600260008373ffffffffffffffffffffffffffffffffffffffff1673ffffffffffffffffffffffffffffffffffffffff168152602001908152602001600020600101600101541461092057806040517f05d68dff0000000000000000000000000000000000000000000000000000000081526004016109179190612347565b60405180910390fd5b84848073ffffffffffffffffffffffffffffffffffffffff168273ffffffffffffffffffffffffffffffffffffffff16146109945780826040517fb1a1f8b800000000000000000000000000000000000000000000000000000000815260040161098b929190612731565b60405180910390fd5b600160009054906101000a900473ffffffffffffffffffffffffffffffffffffffff1673ffffffffffffffffffffffffffffffffffffffff1663076bca6c336040518263ffffffff1660e01b81526004016109ef9190612347565b60006040518083038186803b158015610a0757600080fd5b505afa158015610a1b573d6000803e3d6000fd5b505050508484600260008a73ffffffffffffffffffffffffffffffffffffffff1673ffffffffffffffffffffffffffffffffffffffff1681526020019081526020016000206000019182610a70929190612911565b5086600260008973ffffffffffffffffffffffffffffffffffffffff1673ffffffffffffffffffffffffffffffffffffffff16815260200190815260200160002060010160000160006101000a81548173ffffffffffffffffffffffffffffffffffffffff021916908373ffffffffffffffffffffffffffffffffffffffff16021790555042600260008973ffffffffffffffffffffffffffffffffffffffff1673ffffffffffffffffffffffffffffffffffffffff1681526020019081526020016000206001016001018190555042600260008973ffffffffffffffffffffffffffffffffffffffff1673ffffffffffffffffffffffffffffffffffffffff1681526020019081526020016000206001016002018190555043600260008973ffffffffffffffffffffffffffffffffffffffff1673ffffffffffffffffffffffffffffffffffffffff168152602001908152602001600020600101600301819055507f04ba3b3eaab06ab3e10d3d39ba7db30a9af06393b6574671b7a1000a5d4a0e3687604051610c029190612347565b60405180910390a150505050505050565b60007ff0c57e16840df040f15088dc2f81fe391c3923bec73e23a9662efc9c229c6a00905090565b610c43611860565b806000806101000a81548173ffffffffffffffffffffffffffffffffffffffff021916908373ffffffffffffffffffffffffffffffffffffffff16021790555050565b7f000000000000000000000000000000000000000000000000000000000000000073ffffffffffffffffffffffffffffffffffffffff163073ffffffffffffffffffffffffffffffffffffffff161480610d3357507f000000000000000000000000000000000000000000000000000000000000000073ffffffffffffffffffffffffffffffffffffffff16610d1a6118a0565b73ffffffffffffffffffffffffffffffffffffffff1614155b15610d6a576040517fe07c8dba00000000000000000000000000000000000000000000000000000000815260040160405180910390fd5b565b60008054906101000a900473ffffffffffffffffffffffffffffffffffffffff1673ffffffffffffffffffffffffffffffffffffffff1663574a81d730836040518363ffffffff1660e01b8152600401610dc7929190612731565b60006040518083038186803b158015610ddf57600080fd5b505afa158015610df3573d6000803e3d6000fd5b5050505050565b8173ffffffffffffffffffffffffffffffffffffffff166352d1902d6040518163ffffffff1660e01b8152600401602060405180830381865afa925050508015610e6257506040513d601f19601f82011682018060405250810190610e5f91906129f6565b60015b610ea357816040517f4c9c8ce3000000000000000000000000000000000000000000000000000000008152600401610e9a9190612347565b60405180910390fd5b7f360894a13ba1a3210667c828492db98dca3e2076cc3735a920a3ca505d382bbc60001b8114610f0a57806040517faa1d49a4000000000000000000000000000000000000000000000000000000008152600401610f0191906121df565b60405180910390fd5b610f1483836118f7565b505050565b7f000000000000000000000000000000000000000000000000000000000000000073ffffffffffffffffffffffffffffffffffffffff163073ffffffffffffffffffffffffffffffffffffffff1614610f9e576040517fe07c8dba00000000000000000000000000000000000000000000000000000000815260040160405180910390fd5b565b816000600260008373ffffffffffffffffffffffffffffffffffffffff1673ffffffffffffffffffffffffffffffffffffffff168152602001908152602001600020600101600101540361102b57806040517f863b93fe0000000000000000000000000000000000000000000000000000000081526004016110229190612347565b60405180910390fd5b82600260008273ffffffffffffffffffffffffffffffffffffffff1673ffffffffffffffffffffffffffffffffffffffff16815260200190815260200160002060010160040160009054906101000a900460ff16156110c157806040517fe9aeaecd0000000000000000000000000000000000000000000000000000000081526004016110b89190612347565b60405180910390fd5b83838073ffffffffffffffffffffffffffffffffffffffff168273ffffffffffffffffffffffffffffffffffffffff16146111355780826040517fb1a1f8b800000000000000000000000000000000000000000000000000000000815260040161112c929190612731565b60405180910390fd5b858073ffffffffffffffffffffffffffffffffffffffff163373ffffffffffffffffffffffffffffffffffffffff160361124d576001600260008973ffffffffffffffffffffffffffffffffffffffff1673ffffffffffffffffffffffffffffffffffffffff16815260200190815260200160002060010160040160006101000a81548160ff02191690831515021790555043600260008973ffffffffffffffffffffffffffffffffffffffff1673ffffffffffffffffffffffffffffffffffffffff168152602001908152602001600020600101600301819055507f236b7a85392c62d219956b1f2d21f622daa26da228a7972f50caa2be59bf1706876040516112409190612347565b60405180910390a16113b8565b600160009054906101000a900473ffffffffffffffffffffffffffffffffffffffff1673ffffffffffffffffffffffffffffffffffffffff1663c784cd17336040518263ffffffff1660e01b81526004016112a89190612347565b60006040518083038186803b1580156112c057600080fd5b505afa1580156112d4573d6000803e3d6000fd5b505050506001600260008973ffffffffffffffffffffffffffffffffffffffff1673ffffffffffffffffffffffffffffffffffffffff16815260200190815260200160002060010160040160006101000a81548160ff02191690831515021790555043600260008973ffffffffffffffffffffffffffffffffffffffff1673ffffffffffffffffffffffffffffffffffffffff168152602001908152602001600020600101600301819055507f236b7a85392c62d219956b1f2d21f622daa26da228a7972f50caa2be59bf1706876040516113af9190612347565b60405180910390a15b50505050505050565b836000600260008373ffffffffffffffffffffffffffffffffffffffff1673ffffffffffffffffffffffffffffffffffffffff168152602001908152602001600020600101600101540361144c57806040517f863b93fe0000000000000000000000000000000000000000000000000000000081526004016114439190612347565b60405180910390fd5b84600260008273ffffffffffffffffffffffffffffffffffffffff1673ffffffffffffffffffffffffffffffffffffffff16815260200190815260200160002060010160040160009054906101000a900460ff16156114e257806040517fe9aeaecd0000000000000000000000000000000000000000000000000000000081526004016114d99190612347565b60405180910390fd5b85858073ffffffffffffffffffffffffffffffffffffffff168273ffffffffffffffffffffffffffffffffffffffff16146115565780826040517fb1a1f8b800000000000000000000000000000000000000000000000000000000815260040161154d929190612731565b60405180910390fd5b878073ffffffffffffffffffffffffffffffffffffffff163373ffffffffffffffffffffffffffffffffffffffff16036116ac578686600260008c73ffffffffffffffffffffffffffffffffffffffff1673ffffffffffffffffffffffffffffffffffffffff16815260200190815260200160002060000191826115db929190612911565b5042600260008b73ffffffffffffffffffffffffffffffffffffffff1673ffffffffffffffffffffffffffffffffffffffff1681526020019081526020016000206001016002018190555043600260008b73ffffffffffffffffffffffffffffffffffffffff1673ffffffffffffffffffffffffffffffffffffffff168152602001908152602001600020600101600301819055507f90e3a0a6e9a465f47796c468fa4ba727e3aa2b9270bae4b93cd3dea9ac6e34528960405161169f9190612347565b60405180910390a1611855565b600160009054906101000a900473ffffffffffffffffffffffffffffffffffffffff1673ffffffffffffffffffffffffffffffffffffffff1663c784cd17336040518263ffffffff1660e01b81526004016117079190612347565b60006040518083038186803b15801561171f57600080fd5b505afa158015611733573d6000803e3d6000fd5b505050508686600260008c73ffffffffffffffffffffffffffffffffffffffff1673ffffffffffffffffffffffffffffffffffffffff1681526020019081526020016000206000019182611788929190612911565b5042600260008b73ffffffffffffffffffffffffffffffffffffffff1673ffffffffffffffffffffffffffffffffffffffff1681526020019081526020016000206001016002018190555043600260008b73ffffffffffffffffffffffffffffffffffffffff1673ffffffffffffffffffffffffffffffffffffffff168152602001908152602001600020600101600301819055507f90e3a0a6e9a465f47796c468fa4ba727e3aa2b9270bae4b93cd3dea9ac6e34528960405161184c9190612347565b60405180910390a15b505050505050505050565b61186861196a565b61189e576040517fd7e6bcf800000000000000000000000000000000000000000000000000000000815260040160405180910390fd5b565b60006118ce7f360894a13ba1a3210667c828492db98dca3e2076cc3735a920a3ca505d382bbc60001b61198a565b60000160009054906101000a900473ffffffffffffffffffffffffffffffffffffffff16905090565b61190082611994565b8173ffffffffffffffffffffffffffffffffffffffff167fbc7cd75a20ee27fd9adebab32041f755214dbc6bffa90cc0225b39da2e5c2d3b60405160405180910390a260008151111561195d576119578282611a61565b50611966565b611965611ae5565b5b5050565b6000611974610c13565b60000160089054906101000a900460ff16905090565b6000819050919050565b60008173ffffffffffffffffffffffffffffffffffffffff163b036119f057806040517f4c9c8ce30000000000000000000000000000000000000000000000000000000081526004016119e79190612347565b60405180910390fd5b80611a1d7f360894a13ba1a3210667c828492db98dca3e2076cc3735a920a3ca505d382bbc60001b61198a565b60000160006101000a81548173ffffffffffffffffffffffffffffffffffffffff021916908373ffffffffffffffffffffffffffffffffffffffff16021790555050565b60606000808473ffffffffffffffffffffffffffffffffffffffff1684604051611a8b9190612a54565b600060405180830381855af49150503d8060008114611ac6576040519150601f19603f3d011682016040523d82523d6000602084013e611acb565b606091505b5091509150611adb858383611b22565b9250505092915050565b6000341115611b20576040517fb398979f00000000000000000000000000000000000000000000000000000000815260040160405180910390fd5b565b606082611b3757611b3282611bb1565b611ba9565b60008251148015611b5f575060008473ffffffffffffffffffffffffffffffffffffffff163b145b15611ba157836040517f9996b315000000000000000000000000000000000000000000000000000000008152600401611b989190612347565b60405180910390fd5b819050611baa565b5b9392505050565b600081511115611bc45780518082602001fd5b6040517f1425ea4200000000000000000000000000000000000000000000000000000000815260040160405180910390fd5b604051806040016040528060608152602001611c10611c16565b81525090565b6040518060a00160405280600073ffffffffffffffffffffffffffffffffffffffff1681526020016000815260200160008152602001600081526020016000151581525090565b6000604051905090565b600080fd5b600080fd5b600073ffffffffffffffffffffffffffffffffffffffff82169050919050565b6000611c9c82611c71565b9050919050565b611cac81611c91565b8114611cb757600080fd5b50565b600081359050611cc981611ca3565b92915050565b600060208284031215611ce557611ce4611c67565b5b6000611cf384828501611cba565b91505092915050565b600081519050919050565b600082825260208201905092915050565b60005b83811015611d36578082015181840152602081019050611d1b565b60008484015250505050565b6000601f19601f8301169050919050565b6000611d5e82611cfc565b611d688185611d07565b9350611d78818560208601611d18565b611d8181611d42565b840191505092915050565b611d9581611c91565b82525050565b6000819050919050565b611dae81611d9b565b82525050565b60008115159050919050565b611dc981611db4565b82525050565b60a082016000820151611de56000850182611d8c565b506020820151611df86020850182611da5565b506040820151611e0b6040850182611da5565b506060820151611e1e6060850182611da5565b506080820151611e316080850182611dc0565b50505050565b600060c0830160008301518482036000860152611e548282611d53565b9150506020830151611e696020860182611dcf565b508091505092915050565b60006020820190508181036000830152611e8e8184611e37565b905092915050565b600060ff82169050919050565b611eac81611e96565b8114611eb757600080fd5b50565b600081359050611ec981611ea3565b92915050565b6000819050919050565b611ee281611ecf565b8114611eed57600080fd5b50565b600081359050611eff81611ed9565b92915050565b600080fd5b600080fd5b600080fd5b60008083601f840112611f2a57611f29611f05565b5b8235905067ffffffffffffffff811115611f4757611f46611f0a565b5b602083019150836001820283011115611f6357611f62611f0f565b5b9250929050565b60008060008060008060a08789031215611f8757611f86611c67565b5b6000611f9589828a01611cba565b9650506020611fa689828a01611eba565b9550506040611fb789828a01611ef0565b9450506060611fc889828a01611ef0565b935050608087013567ffffffffffffffff811115611fe957611fe8611c6c565b5b611ff589828a01611f14565b92509250509295509295509295565b6000806040838503121561201b5761201a611c67565b5b600061202985828601611cba565b925050602061203a85828601611cba565b9150509250929050565b600080fd5b7f4e487b7100000000000000000000000000000000000000000000000000000000600052604160045260246000fd5b61208182611d42565b810181811067ffffffffffffffff821117156120a05761209f612049565b5b80604052505050565b60006120b3611c5d565b90506120bf8282612078565b919050565b600067ffffffffffffffff8211156120df576120de612049565b5b6120e882611d42565b9050602081019050919050565b82818337600083830152505050565b6000612117612112846120c4565b6120a9565b90508281526020810184848401111561213357612132612044565b5b61213e8482856120f5565b509392505050565b600082601f83011261215b5761215a611f05565b5b813561216b848260208601612104565b91505092915050565b6000806040838503121561218b5761218a611c67565b5b600061219985828601611cba565b925050602083013567ffffffffffffffff8111156121ba576121b9611c6c565b5b6121c685828601612146565b9150509250929050565b6121d981611ecf565b82525050565b60006020820190506121f460008301846121d0565b92915050565b600081519050919050565b600082825260208201905092915050565b6000612221826121fa565b61222b8185612205565b935061223b818560208601611d18565b61224481611d42565b840191505092915050565b600060208201905081810360008301526122698184612216565b905092915050565b6000806000806080858703121561228b5761228a611c67565b5b600061229987828801611cba565b94505060206122aa87828801611eba565b93505060406122bb87828801611ef0565b92505060606122cc87828801611ef0565b91505092959194509250565b6000806000604084860312156122f1576122f0611c67565b5b60006122ff86828701611cba565b935050602084013567ffffffffffffffff8111156123205761231f611c6c565b5b61232c86828701611f14565b92509250509250925092565b61234181611c91565b82525050565b600060208201905061235c6000830184612338565b92915050565b7f4e487b7100000000000000000000000000000000000000000000000000000000600052602260045260246000fd5b600060028204905060018216806123a957607f821691505b6020821081036123bc576123bb612362565b5b50919050565b60007fff0000000000000000000000000000000000000000000000000000000000000082169050919050565b6000819050919050565b612409612404826123c2565b6123ee565b82525050565b60008160601b9050919050565b60006124278261240f565b9050919050565b60006124398261241c565b9050919050565b61245161244c82611c91565b61242e565b82525050565b600081905092915050565b7f6372656174654469640000000000000000000000000000000000000000000000600082015250565b6000612498600983612457565b91506124a382612462565b600982019050919050565b600081905092915050565b60006124c583856124ae565b93506124d28385846120f5565b82840190509392505050565b60006124ea82896123f8565b6001820191506124fa82886123f8565b60018201915061250a8287612440565b60148201915061251a8286612440565b6014820191506125298261248b565b91506125368284866124b9565b9150819050979650505050505050565b61254f81611e96565b82525050565b600060808201905061256a60008301876121d0565b6125776020830186612546565b61258460408301856121d0565b61259160608301846121d0565b95945050505050565b600067ffffffffffffffff82169050919050565b6125b78161259a565b82525050565b60006020820190506125d260008301846125ae565b92915050565b7f6465616374697661746544696400000000000000000000000000000000000000600082015250565b600061260e600d83612457565b9150612619826125d8565b600d82019050919050565b600061263082876123f8565b60018201915061264082866123f8565b6001820191506126508285612440565b6014820191506126608284612440565b60148201915061266f82612601565b915081905095945050505050565b7f7570646174654469640000000000000000000000000000000000000000000000600082015250565b60006126b3600983612457565b91506126be8261267d565b600982019050919050565b60006126d582896123f8565b6001820191506126e582886123f8565b6001820191506126f58287612440565b6014820191506127058286612440565b601482019150612714826126a6565b91506127218284866124b9565b9150819050979650505050505050565b60006040820190506127466000830185612338565b6127536020830184612338565b9392505050565b600082905092915050565b60008190508160005260206000209050919050565b60006020601f8301049050919050565b600082821b905092915050565b6000600883026127c77fffffffffffffffffffffffffffffffffffffffffffffffffffffffffffffffff8261278a565b6127d1868361278a565b95508019841693508086168417925050509392505050565b6000819050919050565b600061280e61280961280484611d9b565b6127e9565b611d9b565b9050919050565b6000819050919050565b612828836127f3565b61283c61283482612815565b848454612797565b825550505050565b600090565b612851612844565b61285c81848461281f565b505050565b5b8181101561288057612875600082612849565b600181019050612862565b5050565b601f8211156128c55761289681612765565b61289f8461277a565b810160208510156128ae578190505b6128c26128ba8561277a565b830182612861565b50505b505050565b600082821c905092915050565b60006128e8600019846008026128ca565b1980831691505092915050565b600061290183836128d7565b9150826002028217905092915050565b61291b838361275a565b67ffffffffffffffff81111561293457612933612049565b5b61293e8254612391565b612949828285612884565b6000601f8311600181146129785760008415612966578287013590505b61297085826128f5565b8655506129d8565b601f19841661298686612765565b60005b828110156129ae57848901358255600182019150602085019450602081019050612989565b868310156129cb57848901356129c7601f8916826128d7565b8355505b6001600288020188555050505b50505050505050565b6000815190506129f081611ed9565b92915050565b600060208284031215612a0c57612a0b611c67565b5b6000612a1a848285016129e1565b91505092915050565b6000612a2e82611cfc565b612a3881856124ae565b9350612a48818560208601611d18565b80840191505092915050565b6000612a608284612a23565b91508190509291505056fea2646970667358221220f4f6ab290945341c275fdf49e88f6636287ccf3e48d7487fb3dc26a86ad4aea964736f6c63430008140033",
  "linkReferences": {},
  "deployedLinkReferences": {}
}