{
  "_format": "hh-sol-artifact-1",
  "contractName": "CredentialDefinitionRegistry",
  "sourceName": "contracts/anoncreds/CredentialDefinitionRegistry.sol",
  "abi": [
    {
      "inputs": [
        {
          "internalType": "address",
          "name": "target",
          "type": "address"
        }
      ],
      "name": "AddressEmptyCode",
      "type": "error"
    },
    {
      "inputs": [
        {
          "internalType": "bytes32",
          "name": "id",
          "type": "bytes32"
        }
      ],
      "name": "CredentialDefinitionAlreadyExist",
      "type": "error"
    },
    {
      "inputs": [
        {
          "internalType": "bytes32",
          "name": "id",
          "type": "bytes32"
        }
      ],
      "name": "CredentialDefinitionNotFound",
      "type": "error"
    },
    {
      "inputs": [
        {
          "internalType": "address",
          "name": "implementation",
          "type": "address"
        }
      ],
      "name": "ERC1967InvalidImplementation",
      "type": "error"
    },
    {
      "inputs": [],
      "name": "ERC1967NonPayable",
      "type": "error"
    },
    {
      "inputs": [],
      "name": "FailedInnerCall",
      "type": "error"
    },
    {
      "inputs": [],
      "name": "InvalidInitialization",
      "type": "error"
    },
    {
      "inputs": [
        {
          "internalType": "string",
          "name": "did",
          "type": "string"
        }
      ],
      "name": "InvalidIssuerId",
      "type": "error"
    },
    {
      "inputs": [
        {
          "internalType": "string",
          "name": "did",
          "type": "string"
        }
      ],
      "name": "IssuerHasBeenDeactivated",
      "type": "error"
    },
    {
      "inputs": [
        {
          "internalType": "string",
          "name": "did",
          "type": "string"
        }
      ],
      "name": "IssuerNotFound",
      "type": "error"
    },
    {
      "inputs": [
        {
          "internalType": "address",
          "name": "actor",
          "type": "address"
        },
        {
          "internalType": "address",
          "name": "identity",
          "type": "address"
        }
      ],
      "name": "NotIdentityOwner",
      "type": "error"
    },
    {
      "inputs": [],
      "name": "NotInitializing",
      "type": "error"
    },
    {
      "inputs": [],
      "name": "UUPSUnauthorizedCallContext",
      "type": "error"
    },
    {
      "inputs": [
        {
          "internalType": "bytes32",
          "name": "slot",
          "type": "bytes32"
        }
      ],
      "name": "UUPSUnsupportedProxiableUUID",
      "type": "error"
    },
    {
      "anonymous": false,
      "inputs": [
        {
          "indexed": false,
          "internalType": "bytes32",
          "name": "credentialDefinitionId",
          "type": "bytes32"
        },
        {
          "indexed": false,
          "internalType": "address",
          "name": "identity",
          "type": "address"
        }
      ],
      "name": "CredentialDefinitionCreated",
      "type": "event"
    },
    {
      "anonymous": false,
      "inputs": [
        {
          "indexed": false,
          "internalType": "uint64",
          "name": "version",
          "type": "uint64"
        }
      ],
      "name": "Initialized",
      "type": "event"
    },
    {
      "anonymous": false,
      "inputs": [
        {
          "indexed": true,
          "internalType": "address",
          "name": "implementation",
          "type": "address"
        }
      ],
      "name": "Upgraded",
      "type": "event"
    },
    {
      "inputs": [],
      "name": "UPGRADE_INTERFACE_VERSION",
      "outputs": [
        {
          "internalType": "string",
          "name": "",
          "type": "string"
        }
      ],
      "stateMutability": "view",
      "type": "function"
    },
    {
      "inputs": [
        {
          "internalType": "address",
          "name": "identity",
          "type": "address"
        },
        {
          "internalType": "bytes32",
          "name": "id",
          "type": "bytes32"
        },
        {
          "internalType": "string",
          "name": "issuerId",
          "type": "string"
        },
        {
          "internalType": "bytes32",
          "name": "schemaId",
          "type": "bytes32"
        },
        {
          "internalType": "bytes",
          "name": "credDef",
          "type": "bytes"
        }
      ],
      "name": "createCredentialDefinition",
      "outputs": [],
      "stateMutability": "nonpayable",
      "type": "function"
    },
    {
      "inputs": [
        {
          "internalType": "address",
          "name": "identity",
          "type": "address"
        },
        {
          "internalType": "uint8",
          "name": "sigV",
          "type": "uint8"
        },
        {
          "internalType": "bytes32",
          "name": "sigR",
          "type": "bytes32"
        },
        {
          "internalType": "bytes32",
          "name": "sigS",
          "type": "bytes32"
        },
        {
          "internalType": "bytes32",
          "name": "id",
          "type": "bytes32"
        },
        {
          "internalType": "string",
          "name": "issuerId",
          "type": "string"
        },
        {
          "internalType": "bytes32",
          "name": "schemaId",
          "type": "bytes32"
        },
        {
          "internalType": "bytes",
          "name": "credDef",
          "type": "bytes"
        }
      ],
      "name": "createCredentialDefinitionSigned",
      "outputs": [],
      "stateMutability": "nonpayable",
      "type": "function"
    },
    {
      "inputs": [
        {
          "internalType": "address",
          "name": "upgradeControlAddress",
          "type": "address"
        },
        {
          "internalType": "address",
          "name": "didResolverAddress",
          "type": "address"
        },
        {
          "internalType": "address",
          "name": "schemaRegistryAddress",
          "type": "address"
        },
        {
          "internalType": "address",
          "name": "roleControlContractAddress",
          "type": "address"
        }
      ],
      "name": "initialize",
      "outputs": [],
      "stateMutability": "nonpayable",
      "type": "function"
    },
    {
      "inputs": [],
      "name": "proxiableUUID",
      "outputs": [
        {
          "internalType": "bytes32",
          "name": "",
          "type": "bytes32"
        }
      ],
      "stateMutability": "view",
      "type": "function"
    },
    {
      "inputs": [
        {
          "internalType": "bytes32",
          "name": "id",
          "type": "bytes32"
        }
      ],
      "name": "resolveCredentialDefinition",
      "outputs": [
        {
          "components": [
            {
              "internalType": "bytes",
              "name": "credDef",
              "type": "bytes"
            },
            {
              "components": [
                {
                  "internalType": "uint256",
                  "name": "created",
                  "type": "uint256"
                }
              ],
              "internalType": "struct CredentialDefinitionMetadata",
              "name": "metadata",
              "type": "tuple"
            }
          ],
          "internalType": "struct CredentialDefinitionRecord",
          "name": "credentialDefinitionRecord",
          "type": "tuple"
        }
      ],
      "stateMutability": "view",
      "type": "function"
    },
    {
      "inputs": [
        {
          "internalType": "address",
          "name": "newImplementation",
          "type": "address"
        },
        {
          "internalType": "bytes",
          "name": "data",
          "type": "bytes"
        }
      ],
      "name": "upgradeToAndCall",
      "outputs": [],
      "stateMutability": "payable",
      "type": "function"
    }
  ],
  "bytecode": "0x60a06040523073ffffffffffffffffffffffffffffffffffffffff1660809073ffffffffffffffffffffffffffffffffffffffff1681525034801561004357600080fd5b5060805161244c61006d60003960008181610b0901528181610b5e0152610d9c015261244c6000f3fe6080604052600436106100705760003560e01c80639f889db51161004e5780639f889db5146100e5578063ad3cb1cc14610122578063b6c409751461014d578063f8c8765e1461017657610070565b80631108cd7b146100755780634f1ef2861461009e57806352d1902d146100ba575b600080fd5b34801561008157600080fd5b5061009c6004803603810190610097919061145e565b61019f565b005b6100b860048036038101906100b39190611696565b61024f565b005b3480156100c657600080fd5b506100cf61026e565b6040516100dc9190611701565b60405180910390f35b3480156100f157600080fd5b5061010c6004803603810190610107919061171c565b6102a1565b604051610119919061183a565b60405180910390f35b34801561012e57600080fd5b506101376103de565b60405161014491906118b1565b60405180910390f35b34801561015957600080fd5b50610174600480360381019061016f91906118d3565b610417565b005b34801561018257600080fd5b5061019d6004803603810190610198919061198f565b610430565b005b6000601960f81b600060f81b308d8a8a8a8a8a8a6040516020016101cc9a99989796959493929190611b58565b6040516020818303038152906040528051906020012090506102428b6001838d8d8d6040516000815260200160405260405161020b9493929190611c00565b6020604051602081039080840390855afa15801561022d573d6000803e3d6000fd5b5050506020604051035189898989898961062e565b5050505050505050505050565b610257610b07565b61026082610bed565b61026a8282610c7b565b5050565b6000610278610d9a565b7f360894a13ba1a3210667c828492db98dca3e2076cc3735a920a3ca505d382bbc60001b905090565b6102a961128f565b81600060046000838152602001908152602001600020600101600001540361030857806040517f9e9cdfc60000000000000000000000000000000000000000000000000000000081526004016102ff9190611701565b60405180910390fd5b6004600084815260200190815260200160002060405180604001604052908160008201805461033690611c74565b80601f016020809104026020016040519081016040528092919081815260200182805461036290611c74565b80156103af5780601f10610384576101008083540402835291602001916103af565b820191906000526020600020905b81548152906001019060200180831161039257829003601f168201915b505050505081526020016001820160405180602001604052908160008201548152505081525050915050919050565b6040518060400160405280600581526020017f352e302e3000000000000000000000000000000000000000000000000000000081525081565b610427873388888888888861062e565b50505050505050565b6001600061043c610e21565b90508060000160089054906101000a900460ff168061048757508167ffffffffffffffff168160000160009054906101000a900467ffffffffffffffff1667ffffffffffffffff1610155b156104be576040517ff92ee8a900000000000000000000000000000000000000000000000000000000815260040160405180910390fd5b818160000160006101000a81548167ffffffffffffffff021916908367ffffffffffffffff16021790555060018160000160086101000a81548160ff02191690831515021790555061050f86610e49565b84600160006101000a81548173ffffffffffffffffffffffffffffffffffffffff021916908373ffffffffffffffffffffffffffffffffffffffff16021790555083600360006101000a81548173ffffffffffffffffffffffffffffffffffffffff021916908373ffffffffffffffffffffffffffffffffffffffff16021790555082600260006101000a81548173ffffffffffffffffffffffffffffffffffffffff021916908373ffffffffffffffffffffffffffffffffffffffff16021790555060008160000160086101000a81548160ff0219169083151502179055507fc7f505b2f371ae2175ee4913f4499e1f2633a7b5936321eed1cdaeb6115181d28260405161061e9190611cc8565b60405180910390a1505050505050565b600260009054906101000a900473ffffffffffffffffffffffffffffffffffffffff1673ffffffffffffffffffffffffffffffffffffffff1663076bca6c336040518263ffffffff1660e01b81526004016106899190611cf2565b60006040518083038186803b1580156106a157600080fd5b505afa1580156106b5573d6000803e3d6000fd5b5050505085600060046000838152602001908152602001600020600101600001541461071857806040517fb1a7a2af00000000000000000000000000000000000000000000000000000000815260040161070f9190611701565b60405180910390fd5b85858a8a8073ffffffffffffffffffffffffffffffffffffffff168273ffffffffffffffffffffffffffffffffffffffff161461078e5780826040517fb1a1f8b8000000000000000000000000000000000000000000000000000000008152600401610785929190611d0d565b60405180910390fd5b600160009054906101000a900473ffffffffffffffffffffffffffffffffffffffff1673ffffffffffffffffffffffffffffffffffffffff166366874f2585856040518363ffffffff1660e01b81526004016107eb929190611d63565b60a060405180830381865afa92505050801561082557506040513d601f19601f820116820180604052508101906108229190611e96565b60015b610914573d8060008114610855576040519150601f19603f3d011682016040523d82523d6000602084013e61085a565b606091505b5061086c8163863b93fe60e01b610e94565b156108b05784846040517f4c92543b0000000000000000000000000000000000000000000000000000000081526004016108a7929190611d63565b60405180910390fd5b6108c1816330b3c77660e01b610e94565b156109055784846040517f11b2da540000000000000000000000000000000000000000000000000000000081526004016108fc929190611d63565b60405180910390fd5b61090e81610eed565b506109d5565b806000015173ffffffffffffffffffffffffffffffffffffffff168373ffffffffffffffffffffffffffffffffffffffff161461098a5781836040517fb1a1f8b8000000000000000000000000000000000000000000000000000000008152600401610981929190611d0d565b60405180910390fd5b8060800151156109d35784846040517fa12876ae0000000000000000000000000000000000000000000000000000000081526004016109ca929190611d63565b60405180910390fd5b505b87600360009054906101000a900473ffffffffffffffffffffffffffffffffffffffff1673ffffffffffffffffffffffffffffffffffffffff1663aebecb1c826040518263ffffffff1660e01b8152600401610a319190611701565b6000604051808303816000875af1158015610a50573d6000803e3d6000fd5b505050506040513d6000823e3d601f19601f82011682018060405250810190610a799190611fdb565b508787600460008f81526020019081526020016000206000019182610a9f9291906121db565b5042600460008e8152602001908152602001600020600101600001819055507f61a38b1ae2b65567a5f16692367ae7ac5760505f17b3b6e83e306795b9a83ffc8c8f604051610aef9291906122ab565b60405180910390a15050505050505050505050505050565b7f000000000000000000000000000000000000000000000000000000000000000073ffffffffffffffffffffffffffffffffffffffff163073ffffffffffffffffffffffffffffffffffffffff161480610bb457507f000000000000000000000000000000000000000000000000000000000000000073ffffffffffffffffffffffffffffffffffffffff16610b9b610ef9565b73ffffffffffffffffffffffffffffffffffffffff1614155b15610beb576040517fe07c8dba00000000000000000000000000000000000000000000000000000000815260040160405180910390fd5b565b60008054906101000a900473ffffffffffffffffffffffffffffffffffffffff1673ffffffffffffffffffffffffffffffffffffffff1663574a81d730836040518363ffffffff1660e01b8152600401610c48929190611d0d565b60006040518083038186803b158015610c6057600080fd5b505afa158015610c74573d6000803e3d6000fd5b5050505050565b8173ffffffffffffffffffffffffffffffffffffffff166352d1902d6040518163ffffffff1660e01b8152600401602060405180830381865afa925050508015610ce357506040513d601f19601f82011682018060405250810190610ce091906122e9565b60015b610d2457816040517f4c9c8ce3000000000000000000000000000000000000000000000000000000008152600401610d1b9190611cf2565b60405180910390fd5b7f360894a13ba1a3210667c828492db98dca3e2076cc3735a920a3ca505d382bbc60001b8114610d8b57806040517faa1d49a4000000000000000000000000000000000000000000000000000000008152600401610d829190611701565b60405180910390fd5b610d958383610f50565b505050565b7f000000000000000000000000000000000000000000000000000000000000000073ffffffffffffffffffffffffffffffffffffffff163073ffffffffffffffffffffffffffffffffffffffff1614610e1f576040517fe07c8dba00000000000000000000000000000000000000000000000000000000815260040160405180910390fd5b565b60007ff0c57e16840df040f15088dc2f81fe391c3923bec73e23a9662efc9c229c6a00905090565b610e51610fc3565b806000806101000a81548173ffffffffffffffffffffffffffffffffffffffff021916908373ffffffffffffffffffffffffffffffffffffffff16021790555050565b60008083610ea190612367565b9050807bffffffffffffffffffffffffffffffffffffffffffffffffffffffff1916837bffffffffffffffffffffffffffffffffffffffffffffffffffffffff19161491505092915050565b60208101815182018082fd5b6000610f277f360894a13ba1a3210667c828492db98dca3e2076cc3735a920a3ca505d382bbc60001b611003565b60000160009054906101000a900473ffffffffffffffffffffffffffffffffffffffff16905090565b610f598261100d565b8173ffffffffffffffffffffffffffffffffffffffff167fbc7cd75a20ee27fd9adebab32041f755214dbc6bffa90cc0225b39da2e5c2d3b60405160405180910390a2600081511115610fb657610fb082826110da565b50610fbf565b610fbe61115e565b5b5050565b610fcb61119b565b611001576040517fd7e6bcf800000000000000000000000000000000000000000000000000000000815260040160405180910390fd5b565b6000819050919050565b60008173ffffffffffffffffffffffffffffffffffffffff163b0361106957806040517f4c9c8ce30000000000000000000000000000000000000000000000000000000081526004016110609190611cf2565b60405180910390fd5b806110967f360894a13ba1a3210667c828492db98dca3e2076cc3735a920a3ca505d382bbc60001b611003565b60000160006101000a81548173ffffffffffffffffffffffffffffffffffffffff021916908373ffffffffffffffffffffffffffffffffffffffff16021790555050565b60606000808473ffffffffffffffffffffffffffffffffffffffff168460405161110491906123ff565b600060405180830381855af49150503d806000811461113f576040519150601f19603f3d011682016040523d82523d6000602084013e611144565b606091505b50915091506111548583836111bb565b9250505092915050565b6000341115611199576040517fb398979f00000000000000000000000000000000000000000000000000000000815260040160405180910390fd5b565b60006111a5610e21565b60000160089054906101000a900460ff16905090565b6060826111d0576111cb8261124a565b611242565b600082511480156111f8575060008473ffffffffffffffffffffffffffffffffffffffff163b145b1561123a57836040517f9996b3150000000000000000000000000000000000000000000000000000000081526004016112319190611cf2565b60405180910390fd5b819050611243565b5b9392505050565b60008151111561125d5780518082602001fd5b6040517f1425ea4200000000000000000000000000000000000000000000000000000000815260040160405180910390fd5b6040518060400160405280606081526020016112a96112af565b81525090565b6040518060200160405280600081525090565b6000604051905090565b600080fd5b600080fd5b600073ffffffffffffffffffffffffffffffffffffffff82169050919050565b6000611301826112d6565b9050919050565b611311816112f6565b811461131c57600080fd5b50565b60008135905061132e81611308565b92915050565b600060ff82169050919050565b61134a81611334565b811461135557600080fd5b50565b60008135905061136781611341565b92915050565b6000819050919050565b6113808161136d565b811461138b57600080fd5b50565b60008135905061139d81611377565b92915050565b600080fd5b600080fd5b600080fd5b60008083601f8401126113c8576113c76113a3565b5b8235905067ffffffffffffffff8111156113e5576113e46113a8565b5b602083019150836001820283011115611401576114006113ad565b5b9250929050565b60008083601f84011261141e5761141d6113a3565b5b8235905067ffffffffffffffff81111561143b5761143a6113a8565b5b602083019150836001820283011115611457576114566113ad565b5b9250929050565b6000806000806000806000806000806101008b8d031215611482576114816112cc565b5b60006114908d828e0161131f565b9a505060206114a18d828e01611358565b99505060406114b28d828e0161138e565b98505060606114c38d828e0161138e565b97505060806114d48d828e0161138e565b96505060a08b013567ffffffffffffffff8111156114f5576114f46112d1565b5b6115018d828e016113b2565b955095505060c06115148d828e0161138e565b93505060e08b013567ffffffffffffffff811115611535576115346112d1565b5b6115418d828e01611408565b92509250509295989b9194979a5092959850565b600080fd5b6000601f19601f8301169050919050565b7f4e487b7100000000000000000000000000000000000000000000000000000000600052604160045260246000fd5b6115a38261155a565b810181811067ffffffffffffffff821117156115c2576115c161156b565b5b80604052505050565b60006115d56112c2565b90506115e1828261159a565b919050565b600067ffffffffffffffff8211156116015761160061156b565b5b61160a8261155a565b9050602081019050919050565b82818337600083830152505050565b6000611639611634846115e6565b6115cb565b90508281526020810184848401111561165557611654611555565b5b611660848285611617565b509392505050565b600082601f83011261167d5761167c6113a3565b5b813561168d848260208601611626565b91505092915050565b600080604083850312156116ad576116ac6112cc565b5b60006116bb8582860161131f565b925050602083013567ffffffffffffffff8111156116dc576116db6112d1565b5b6116e885828601611668565b9150509250929050565b6116fb8161136d565b82525050565b600060208201905061171660008301846116f2565b92915050565b600060208284031215611732576117316112cc565b5b60006117408482850161138e565b91505092915050565b600081519050919050565b600082825260208201905092915050565b60005b83811015611783578082015181840152602081019050611768565b60008484015250505050565b600061179a82611749565b6117a48185611754565b93506117b4818560208601611765565b6117bd8161155a565b840191505092915050565b6000819050919050565b6117db816117c8565b82525050565b6020820160008201516117f760008501826117d2565b50505050565b6000604083016000830151848203600086015261181a828261178f565b915050602083015161182f60208601826117e1565b508091505092915050565b6000602082019050818103600083015261185481846117fd565b905092915050565b600081519050919050565b600082825260208201905092915050565b60006118838261185c565b61188d8185611867565b935061189d818560208601611765565b6118a68161155a565b840191505092915050565b600060208201905081810360008301526118cb8184611878565b905092915050565b600080600080600080600060a0888a0312156118f2576118f16112cc565b5b60006119008a828b0161131f565b97505060206119118a828b0161138e565b965050604088013567ffffffffffffffff811115611932576119316112d1565b5b61193e8a828b016113b2565b955095505060606119518a828b0161138e565b935050608088013567ffffffffffffffff811115611972576119716112d1565b5b61197e8a828b01611408565b925092505092959891949750929550565b600080600080608085870312156119a9576119a86112cc565b5b60006119b78782880161131f565b94505060206119c88782880161131f565b93505060406119d98782880161131f565b92505060606119ea8782880161131f565b91505092959194509250565b60007fff0000000000000000000000000000000000000000000000000000000000000082169050919050565b6000819050919050565b611a3d611a38826119f6565b611a22565b82525050565b60008160601b9050919050565b6000611a5b82611a43565b9050919050565b6000611a6d82611a50565b9050919050565b611a85611a80826112f6565b611a62565b82525050565b600081905092915050565b7f63726561746543726564656e7469616c446566696e6974696f6e000000000000600082015250565b6000611acc601a83611a8b565b9150611ad782611a96565b601a82019050919050565b6000819050919050565b611afd611af88261136d565b611ae2565b82525050565b6000611b0f8385611a8b565b9350611b1c838584611617565b82840190509392505050565b600081905092915050565b6000611b3f8385611b28565b9350611b4c838584611617565b82840190509392505050565b6000611b64828d611a2c565b600182019150611b74828c611a2c565b600182019150611b84828b611a74565b601482019150611b94828a611a74565b601482019150611ba382611abf565b9150611baf8289611aec565b602082019150611bc0828789611b03565b9150611bcc8286611aec565b602082019150611bdd828486611b33565b91508190509b9a5050505050505050505050565b611bfa81611334565b82525050565b6000608082019050611c1560008301876116f2565b611c226020830186611bf1565b611c2f60408301856116f2565b611c3c60608301846116f2565b95945050505050565b7f4e487b7100000000000000000000000000000000000000000000000000000000600052602260045260246000fd5b60006002820490506001821680611c8c57607f821691505b602082108103611c9f57611c9e611c45565b5b50919050565b600067ffffffffffffffff82169050919050565b611cc281611ca5565b82525050565b6000602082019050611cdd6000830184611cb9565b92915050565b611cec816112f6565b82525050565b6000602082019050611d076000830184611ce3565b92915050565b6000604082019050611d226000830185611ce3565b611d2f6020830184611ce3565b9392505050565b6000611d428385611867565b9350611d4f838584611617565b611d588361155a565b840190509392505050565b60006020820190508181036000830152611d7e818486611d36565b90509392505050565b600080fd5b600080fd5b600081519050611da081611308565b92915050565b611daf816117c8565b8114611dba57600080fd5b50565b600081519050611dcc81611da6565b92915050565b60008115159050919050565b611de781611dd2565b8114611df257600080fd5b50565b600081519050611e0481611dde565b92915050565b600060a08284031215611e2057611e1f611d87565b5b611e2a60a06115cb565b90506000611e3a84828501611d91565b6000830152506020611e4e84828501611dbd565b6020830152506040611e6284828501611dbd565b6040830152506060611e7684828501611dbd565b6060830152506080611e8a84828501611df5565b60808301525092915050565b600060a08284031215611eac57611eab6112cc565b5b6000611eba84828501611e0a565b91505092915050565b6000611ed6611ed1846115e6565b6115cb565b905082815260208101848484011115611ef257611ef1611555565b5b611efd848285611765565b509392505050565b600082601f830112611f1a57611f196113a3565b5b8151611f2a848260208601611ec3565b91505092915050565b600060208284031215611f4957611f48611d87565b5b611f5360206115cb565b90506000611f6384828501611dbd565b60008301525092915050565b600060408284031215611f8557611f84611d87565b5b611f8f60406115cb565b9050600082015167ffffffffffffffff811115611faf57611fae611d8c565b5b611fbb84828501611f05565b6000830152506020611fcf84828501611f33565b60208301525092915050565b600060208284031215611ff157611ff06112cc565b5b600082015167ffffffffffffffff81111561200f5761200e6112d1565b5b61201b84828501611f6f565b91505092915050565b600082905092915050565b60008190508160005260206000209050919050565b60006020601f8301049050919050565b600082821b905092915050565b6000600883026120917fffffffffffffffffffffffffffffffffffffffffffffffffffffffffffffffff82612054565b61209b8683612054565b95508019841693508086168417925050509392505050565b6000819050919050565b60006120d86120d36120ce846117c8565b6120b3565b6117c8565b9050919050565b6000819050919050565b6120f2836120bd565b6121066120fe826120df565b848454612061565b825550505050565b600090565b61211b61210e565b6121268184846120e9565b505050565b5b8181101561214a5761213f600082612113565b60018101905061212c565b5050565b601f82111561218f576121608161202f565b61216984612044565b81016020851015612178578190505b61218c61218485612044565b83018261212b565b50505b505050565b600082821c905092915050565b60006121b260001984600802612194565b1980831691505092915050565b60006121cb83836121a1565b9150826002028217905092915050565b6121e58383612024565b67ffffffffffffffff8111156121fe576121fd61156b565b5b6122088254611c74565b61221382828561214e565b6000601f8311600181146122425760008415612230578287013590505b61223a85826121bf565b8655506122a2565b601f1984166122508661202f565b60005b8281101561227857848901358255600182019150602085019450602081019050612253565b868310156122955784890135612291601f8916826121a1565b8355505b6001600288020188555050505b50505050505050565b60006040820190506122c060008301856116f2565b6122cd6020830184611ce3565b9392505050565b6000815190506122e381611377565b92915050565b6000602082840312156122ff576122fe6112cc565b5b600061230d848285016122d4565b91505092915050565b6000819050602082019050919050565b60007fffffffff0000000000000000000000000000000000000000000000000000000082169050919050565b600061235e8251612326565b80915050919050565b600061237282611749565b8261237c84612316565b905061238781612352565b925060048210156123c7576123c27fffffffff0000000000000000000000000000000000000000000000000000000083600403600802612054565b831692505b5050919050565b60006123d982611749565b6123e38185611b28565b93506123f3818560208601611765565b80840191505092915050565b600061240b82846123ce565b91508190509291505056fea2646970667358221220a4658eabbdc880e3672ebf451742bb988fee5bc646374137da820638e328e60264736f6c63430008140033",
  "linkReferences": {},
  "deployedLinkReferences": {}
}