{
  "_format": "hh-sol-artifact-1",
  "contractName": "SchemaRegistry",
  "sourceName": "contracts/anoncreds/SchemaRegistry.sol",
  "abi": [
    {
      "inputs": [
        {
          "internalType": "address",
          "name": "target",
          "type": "address"
        }
      ],
      "name": "AddressEmptyCode",
      "type": "error"
    },
    {
      "inputs": [
        {
          "internalType": "address",
          "name": "implementation",
          "type": "address"
        }
      ],
      "name": "ERC1967InvalidImplementation",
      "type": "error"
    },
    {
      "inputs": [],
      "name": "ERC1967NonPayable",
      "type": "error"
    },
    {
      "inputs": [],
      "name": "FailedInnerCall",
      "type": "error"
    },
    {
      "inputs": [],
      "name": "InvalidInitialization",
      "type": "error"
    },
    {
      "inputs": [
        {
          "internalType": "string",
          "name": "did",
          "type": "string"
        }
      ],
      "name": "InvalidIssuerId",
      "type": "error"
    },
    {
      "inputs": [
        {
          "internalType": "string",
          "name": "did",
          "type": "string"
        }
      ],
      "name": "IssuerHasBeenDeactivated",
      "type": "error"
    },
    {
      "inputs": [
        {
          "internalType": "string",
          "name": "did",
          "type": "string"
        }
      ],
      "name": "IssuerNotFound",
      "type": "error"
    },
    {
      "inputs": [
        {
          "internalType": "address",
          "name": "actor",
          "type": "address"
        },
        {
          "internalType": "address",
          "name": "identity",
          "type": "address"
        }
      ],
      "name": "NotIdentityOwner",
      "type": "error"
    },
    {
      "inputs": [],
      "name": "NotInitializing",
      "type": "error"
    },
    {
      "inputs": [
        {
          "internalType": "bytes32",
          "name": "id",
          "type": "bytes32"
        }
      ],
      "name": "SchemaAlreadyExist",
      "type": "error"
    },
    {
      "inputs": [
        {
          "internalType": "bytes32",
          "name": "id",
          "type": "bytes32"
        }
      ],
      "name": "SchemaNotFound",
      "type": "error"
    },
    {
      "inputs": [],
      "name": "UUPSUnauthorizedCallContext",
      "type": "error"
    },
    {
      "inputs": [
        {
          "internalType": "bytes32",
          "name": "slot",
          "type": "bytes32"
        }
      ],
      "name": "UUPSUnsupportedProxiableUUID",
      "type": "error"
    },
    {
      "anonymous": false,
      "inputs": [
        {
          "indexed": false,
          "internalType": "uint64",
          "name": "version",
          "type": "uint64"
        }
      ],
      "name": "Initialized",
      "type": "event"
    },
    {
      "anonymous": false,
      "inputs": [
        {
          "indexed": false,
          "internalType": "bytes32",
          "name": "schemaId",
          "type": "bytes32"
        },
        {
          "indexed": false,
          "internalType": "address",
          "name": "identity",
          "type": "address"
        }
      ],
      "name": "SchemaCreated",
      "type": "event"
    },
    {
      "anonymous": false,
      "inputs": [
        {
          "indexed": true,
          "internalType": "address",
          "name": "implementation",
          "type": "address"
        }
      ],
      "name": "Upgraded",
      "type": "event"
    },
    {
      "inputs": [],
      "name": "UPGRADE_INTERFACE_VERSION",
      "outputs": [
        {
          "internalType": "string",
          "name": "",
          "type": "string"
        }
      ],
      "stateMutability": "view",
      "type": "function"
    },
    {
      "inputs": [
        {
          "internalType": "address",
          "name": "identity",
          "type": "address"
        },
        {
          "internalType": "bytes32",
          "name": "id",
          "type": "bytes32"
        },
        {
          "internalType": "string",
          "name": "issuerId",
          "type": "string"
        },
        {
          "internalType": "bytes",
          "name": "schema",
          "type": "bytes"
        }
      ],
      "name": "createSchema",
      "outputs": [],
      "stateMutability": "nonpayable",
      "type": "function"
    },
    {
      "inputs": [
        {
          "internalType": "address",
          "name": "identity",
          "type": "address"
        },
        {
          "internalType": "uint8",
          "name": "sigV",
          "type": "uint8"
        },
        {
          "internalType": "bytes32",
          "name": "sigR",
          "type": "bytes32"
        },
        {
          "internalType": "bytes32",
          "name": "sigS",
          "type": "bytes32"
        },
        {
          "internalType": "bytes32",
          "name": "id",
          "type": "bytes32"
        },
        {
          "internalType": "string",
          "name": "issuerId",
          "type": "string"
        },
        {
          "internalType": "bytes",
          "name": "schema",
          "type": "bytes"
        }
      ],
      "name": "createSchemaSigned",
      "outputs": [],
      "stateMutability": "nonpayable",
      "type": "function"
    },
    {
      "inputs": [
        {
          "internalType": "address",
          "name": "upgradeControlAddress",
          "type": "address"
        },
        {
          "internalType": "address",
          "name": "didResolverAddress",
          "type": "address"
        },
        {
          "internalType": "address",
          "name": "roleControlContractAddress",
          "type": "address"
        }
      ],
      "name": "initialize",
      "outputs": [],
      "stateMutability": "nonpayable",
      "type": "function"
    },
    {
      "inputs": [],
      "name": "proxiableUUID",
      "outputs": [
        {
          "internalType": "bytes32",
          "name": "",
          "type": "bytes32"
        }
      ],
      "stateMutability": "view",
      "type": "function"
    },
    {
      "inputs": [
        {
          "internalType": "bytes32",
          "name": "id",
          "type": "bytes32"
        }
      ],
      "name": "resolveSchema",
      "outputs": [
        {
          "components": [
            {
              "internalType": "bytes",
              "name": "schema",
              "type": "bytes"
            },
            {
              "components": [
                {
                  "internalType": "uint256",
                  "name": "created",
                  "type": "uint256"
                }
              ],
              "internalType": "struct SchemaMetadata",
              "name": "metadata",
              "type": "tuple"
            }
          ],
          "internalType": "struct SchemaRecord",
          "name": "schemaRecord",
          "type": "tuple"
        }
      ],
      "stateMutability": "view",
      "type": "function"
    },
    {
      "inputs": [
        {
          "internalType": "address",
          "name": "newImplementation",
          "type": "address"
        },
        {
          "internalType": "bytes",
          "name": "data",
          "type": "bytes"
        }
      ],
      "name": "upgradeToAndCall",
      "outputs": [],
      "stateMutability": "payable",
      "type": "function"
    }
  ],
  "bytecode": "0x60a06040523073ffffffffffffffffffffffffffffffffffffffff1660809073ffffffffffffffffffffffffffffffffffffffff1681525034801561004357600080fd5b506080516121a861006d60003960008181610a1a01528181610a6f0152610cad01526121a86000f3fe6080604052600436106100705760003560e01c806383d3fb3c1161004e57806383d3fb3c146100e5578063ad3cb1cc1461010e578063aebecb1c14610139578063c0c53b8b1461017657610070565b80634812cbf8146100755780634f1ef2861461009e57806352d1902d146100ba575b600080fd5b34801561008157600080fd5b5061009c6004803603810190610097919061136f565b61019f565b005b6100b860048036038101906100b39190611592565b61024b565b005b3480156100c657600080fd5b506100cf61026a565b6040516100dc91906115fd565b60405180910390f35b3480156100f157600080fd5b5061010c60048036038101906101079190611618565b61029d565b005b34801561011a57600080fd5b506101236102b4565b604051610130919061173e565b60405180910390f35b34801561014557600080fd5b50610160600480360381019061015b9190611760565b6102ed565b60405161016d9190611854565b60405180910390f35b34801561018257600080fd5b5061019d60048036038101906101989190611876565b61042a565b005b6000601960f81b600060f81b308c89898989896040516020016101ca99989796959493929190611a2b565b60405160208183030381529060405280519060200120905061023f8a6001838c8c8c604051600081526020016040526040516102099493929190611ac2565b6020604051602081039080840390855afa15801561022b573d6000803e3d6000fd5b5050506020604051035188888888886105e6565b50505050505050505050565b610253610a18565b61025c82610afe565b6102668282610b8c565b5050565b6000610274610cab565b7f360894a13ba1a3210667c828492db98dca3e2076cc3735a920a3ca505d382bbc60001b905090565b6102ac863387878787876105e6565b505050505050565b6040518060400160405280600581526020017f352e302e3000000000000000000000000000000000000000000000000000000081525081565b6102f56111a0565b81600060036000838152602001908152602001600020600101600001540361035457806040517f18f7a0d400000000000000000000000000000000000000000000000000000000815260040161034b91906115fd565b60405180910390fd5b6003600084815260200190815260200160002060405180604001604052908160008201805461038290611b36565b80601f01602080910402602001604051908101604052809291908181526020018280546103ae90611b36565b80156103fb5780601f106103d0576101008083540402835291602001916103fb565b820191906000526020600020905b8154815290600101906020018083116103de57829003601f168201915b505050505081526020016001820160405180602001604052908160008201548152505081525050915050919050565b60016000610436610d32565b90508060000160089054906101000a900460ff168061048157508167ffffffffffffffff168160000160009054906101000a900467ffffffffffffffff1667ffffffffffffffff1610155b156104b8576040517ff92ee8a900000000000000000000000000000000000000000000000000000000815260040160405180910390fd5b818160000160006101000a81548167ffffffffffffffff021916908367ffffffffffffffff16021790555060018160000160086101000a81548160ff02191690831515021790555061050985610d5a565b83600160006101000a81548173ffffffffffffffffffffffffffffffffffffffff021916908373ffffffffffffffffffffffffffffffffffffffff16021790555082600260006101000a81548173ffffffffffffffffffffffffffffffffffffffff021916908373ffffffffffffffffffffffffffffffffffffffff16021790555060008160000160086101000a81548160ff0219169083151502179055507fc7f505b2f371ae2175ee4913f4499e1f2633a7b5936321eed1cdaeb6115181d2826040516105d79190611b8a565b60405180910390a15050505050565b600260009054906101000a900473ffffffffffffffffffffffffffffffffffffffff1673ffffffffffffffffffffffffffffffffffffffff1663076bca6c336040518263ffffffff1660e01b81526004016106419190611bb4565b60006040518083038186803b15801561065957600080fd5b505afa15801561066d573d6000803e3d6000fd5b505050508460006003600083815260200190815260200160002060010160000154146106d057806040517f8fec66520000000000000000000000000000000000000000000000000000000081526004016106c791906115fd565b60405180910390fd5b848489898073ffffffffffffffffffffffffffffffffffffffff168273ffffffffffffffffffffffffffffffffffffffff16146107465780826040517fb1a1f8b800000000000000000000000000000000000000000000000000000000815260040161073d929190611bcf565b60405180910390fd5b600160009054906101000a900473ffffffffffffffffffffffffffffffffffffffff1673ffffffffffffffffffffffffffffffffffffffff166366874f2585856040518363ffffffff1660e01b81526004016107a3929190611c25565b60a060405180830381865afa9250505080156107dd57506040513d601f19601f820116820180604052508101906107da9190611d53565b60015b6108cc573d806000811461080d576040519150601f19603f3d011682016040523d82523d6000602084013e610812565b606091505b506108248163863b93fe60e01b610da5565b156108685784846040517f4c92543b00000000000000000000000000000000000000000000000000000000815260040161085f929190611c25565b60405180910390fd5b610879816330b3c77660e01b610da5565b156108bd5784846040517f11b2da540000000000000000000000000000000000000000000000000000000081526004016108b4929190611c25565b60405180910390fd5b6108c681610dfe565b5061098d565b806000015173ffffffffffffffffffffffffffffffffffffffff168373ffffffffffffffffffffffffffffffffffffffff16146109425781836040517fb1a1f8b8000000000000000000000000000000000000000000000000000000008152600401610939929190611bcf565b60405180910390fd5b80608001511561098b5784846040517fa12876ae000000000000000000000000000000000000000000000000000000008152600401610982929190611c25565b60405180910390fd5b505b8686600360008d815260200190815260200160002060000191826109b2929190611f37565b5042600360008c8152602001908152602001600020600101600001819055507f45fee04f2246b5d68ef5c7ef25c36f53a681e27c076395d9c46b22af51e8b7828a8d604051610a02929190612007565b60405180910390a1505050505050505050505050565b7f000000000000000000000000000000000000000000000000000000000000000073ffffffffffffffffffffffffffffffffffffffff163073ffffffffffffffffffffffffffffffffffffffff161480610ac557507f000000000000000000000000000000000000000000000000000000000000000073ffffffffffffffffffffffffffffffffffffffff16610aac610e0a565b73ffffffffffffffffffffffffffffffffffffffff1614155b15610afc576040517fe07c8dba00000000000000000000000000000000000000000000000000000000815260040160405180910390fd5b565b60008054906101000a900473ffffffffffffffffffffffffffffffffffffffff1673ffffffffffffffffffffffffffffffffffffffff1663574a81d730836040518363ffffffff1660e01b8152600401610b59929190611bcf565b60006040518083038186803b158015610b7157600080fd5b505afa158015610b85573d6000803e3d6000fd5b5050505050565b8173ffffffffffffffffffffffffffffffffffffffff166352d1902d6040518163ffffffff1660e01b8152600401602060405180830381865afa925050508015610bf457506040513d601f19601f82011682018060405250810190610bf19190612045565b60015b610c3557816040517f4c9c8ce3000000000000000000000000000000000000000000000000000000008152600401610c2c9190611bb4565b60405180910390fd5b7f360894a13ba1a3210667c828492db98dca3e2076cc3735a920a3ca505d382bbc60001b8114610c9c57806040517faa1d49a4000000000000000000000000000000000000000000000000000000008152600401610c9391906115fd565b60405180910390fd5b610ca68383610e61565b505050565b7f000000000000000000000000000000000000000000000000000000000000000073ffffffffffffffffffffffffffffffffffffffff163073ffffffffffffffffffffffffffffffffffffffff1614610d30576040517fe07c8dba00000000000000000000000000000000000000000000000000000000815260040160405180910390fd5b565b60007ff0c57e16840df040f15088dc2f81fe391c3923bec73e23a9662efc9c229c6a00905090565b610d62610ed4565b806000806101000a81548173ffffffffffffffffffffffffffffffffffffffff021916908373ffffffffffffffffffffffffffffffffffffffff16021790555050565b60008083610db2906120c3565b9050807bffffffffffffffffffffffffffffffffffffffffffffffffffffffff1916837bffffffffffffffffffffffffffffffffffffffffffffffffffffffff19161491505092915050565b60208101815182018082fd5b6000610e387f360894a13ba1a3210667c828492db98dca3e2076cc3735a920a3ca505d382bbc60001b610f14565b60000160009054906101000a900473ffffffffffffffffffffffffffffffffffffffff16905090565b610e6a82610f1e565b8173ffffffffffffffffffffffffffffffffffffffff167fbc7cd75a20ee27fd9adebab32041f755214dbc6bffa90cc0225b39da2e5c2d3b60405160405180910390a2600081511115610ec757610ec18282610feb565b50610ed0565b610ecf61106f565b5b5050565b610edc6110ac565b610f12576040517fd7e6bcf800000000000000000000000000000000000000000000000000000000815260040160405180910390fd5b565b6000819050919050565b60008173ffffffffffffffffffffffffffffffffffffffff163b03610f7a57806040517f4c9c8ce3000000000000000000000000000000000000000000000000000000008152600401610f719190611bb4565b60405180910390fd5b80610fa77f360894a13ba1a3210667c828492db98dca3e2076cc3735a920a3ca505d382bbc60001b610f14565b60000160006101000a81548173ffffffffffffffffffffffffffffffffffffffff021916908373ffffffffffffffffffffffffffffffffffffffff16021790555050565b60606000808473ffffffffffffffffffffffffffffffffffffffff1684604051611015919061215b565b600060405180830381855af49150503d8060008114611050576040519150601f19603f3d011682016040523d82523d6000602084013e611055565b606091505b50915091506110658583836110cc565b9250505092915050565b60003411156110aa576040517fb398979f00000000000000000000000000000000000000000000000000000000815260040160405180910390fd5b565b60006110b6610d32565b60000160089054906101000a900460ff16905090565b6060826110e1576110dc8261115b565b611153565b60008251148015611109575060008473ffffffffffffffffffffffffffffffffffffffff163b145b1561114b57836040517f9996b3150000000000000000000000000000000000000000000000000000000081526004016111429190611bb4565b60405180910390fd5b819050611154565b5b9392505050565b60008151111561116e5780518082602001fd5b6040517f1425ea4200000000000000000000000000000000000000000000000000000000815260040160405180910390fd5b6040518060400160405280606081526020016111ba6111c0565b81525090565b6040518060200160405280600081525090565b6000604051905090565b600080fd5b600080fd5b600073ffffffffffffffffffffffffffffffffffffffff82169050919050565b6000611212826111e7565b9050919050565b61122281611207565b811461122d57600080fd5b50565b60008135905061123f81611219565b92915050565b600060ff82169050919050565b61125b81611245565b811461126657600080fd5b50565b60008135905061127881611252565b92915050565b6000819050919050565b6112918161127e565b811461129c57600080fd5b50565b6000813590506112ae81611288565b92915050565b600080fd5b600080fd5b600080fd5b60008083601f8401126112d9576112d86112b4565b5b8235905067ffffffffffffffff8111156112f6576112f56112b9565b5b602083019150836001820283011115611312576113116112be565b5b9250929050565b60008083601f84011261132f5761132e6112b4565b5b8235905067ffffffffffffffff81111561134c5761134b6112b9565b5b602083019150836001820283011115611368576113676112be565b5b9250929050565b600080600080600080600080600060e08a8c031215611391576113906111dd565b5b600061139f8c828d01611230565b99505060206113b08c828d01611269565b98505060406113c18c828d0161129f565b97505060606113d28c828d0161129f565b96505060806113e38c828d0161129f565b95505060a08a013567ffffffffffffffff811115611404576114036111e2565b5b6114108c828d016112c3565b945094505060c08a013567ffffffffffffffff811115611433576114326111e2565b5b61143f8c828d01611319565b92509250509295985092959850929598565b600080fd5b6000601f19601f8301169050919050565b7f4e487b7100000000000000000000000000000000000000000000000000000000600052604160045260246000fd5b61149f82611456565b810181811067ffffffffffffffff821117156114be576114bd611467565b5b80604052505050565b60006114d16111d3565b90506114dd8282611496565b919050565b600067ffffffffffffffff8211156114fd576114fc611467565b5b61150682611456565b9050602081019050919050565b82818337600083830152505050565b6000611535611530846114e2565b6114c7565b90508281526020810184848401111561155157611550611451565b5b61155c848285611513565b509392505050565b600082601f830112611579576115786112b4565b5b8135611589848260208601611522565b91505092915050565b600080604083850312156115a9576115a86111dd565b5b60006115b785828601611230565b925050602083013567ffffffffffffffff8111156115d8576115d76111e2565b5b6115e485828601611564565b9150509250929050565b6115f78161127e565b82525050565b600060208201905061161260008301846115ee565b92915050565b60008060008060008060808789031215611635576116346111dd565b5b600061164389828a01611230565b965050602061165489828a0161129f565b955050604087013567ffffffffffffffff811115611675576116746111e2565b5b61168189828a016112c3565b9450945050606087013567ffffffffffffffff8111156116a4576116a36111e2565b5b6116b089828a01611319565b92509250509295509295509295565b600081519050919050565b600082825260208201905092915050565b60005b838110156116f95780820151818401526020810190506116de565b60008484015250505050565b6000611710826116bf565b61171a81856116ca565b935061172a8185602086016116db565b61173381611456565b840191505092915050565b600060208201905081810360008301526117588184611705565b905092915050565b600060208284031215611776576117756111dd565b5b60006117848482850161129f565b91505092915050565b600081519050919050565b600082825260208201905092915050565b60006117b48261178d565b6117be8185611798565b93506117ce8185602086016116db565b6117d781611456565b840191505092915050565b6000819050919050565b6117f5816117e2565b82525050565b60208201600082015161181160008501826117ec565b50505050565b6000604083016000830151848203600086015261183482826117a9565b915050602083015161184960208601826117fb565b508091505092915050565b6000602082019050818103600083015261186e8184611817565b905092915050565b60008060006060848603121561188f5761188e6111dd565b5b600061189d86828701611230565b93505060206118ae86828701611230565b92505060406118bf86828701611230565b9150509250925092565b60007fff0000000000000000000000000000000000000000000000000000000000000082169050919050565b6000819050919050565b61191061190b826118c9565b6118f5565b82525050565b60008160601b9050919050565b600061192e82611916565b9050919050565b600061194082611923565b9050919050565b61195861195382611207565b611935565b82525050565b600081905092915050565b7f637265617465536368656d610000000000000000000000000000000000000000600082015250565b600061199f600c8361195e565b91506119aa82611969565b600c82019050919050565b6000819050919050565b6119d06119cb8261127e565b6119b5565b82525050565b60006119e2838561195e565b93506119ef838584611513565b82840190509392505050565b600081905092915050565b6000611a1283856119fb565b9350611a1f838584611513565b82840190509392505050565b6000611a37828c6118ff565b600182019150611a47828b6118ff565b600182019150611a57828a611947565b601482019150611a678289611947565b601482019150611a7682611992565b9150611a8282886119bf565b602082019150611a938286886119d6565b9150611aa0828486611a06565b91508190509a9950505050505050505050565b611abc81611245565b82525050565b6000608082019050611ad760008301876115ee565b611ae46020830186611ab3565b611af160408301856115ee565b611afe60608301846115ee565b95945050505050565b7f4e487b7100000000000000000000000000000000000000000000000000000000600052602260045260246000fd5b60006002820490506001821680611b4e57607f821691505b602082108103611b6157611b60611b07565b5b50919050565b600067ffffffffffffffff82169050919050565b611b8481611b67565b82525050565b6000602082019050611b9f6000830184611b7b565b92915050565b611bae81611207565b82525050565b6000602082019050611bc96000830184611ba5565b92915050565b6000604082019050611be46000830185611ba5565b611bf16020830184611ba5565b9392505050565b6000611c0483856116ca565b9350611c11838584611513565b611c1a83611456565b840190509392505050565b60006020820190508181036000830152611c40818486611bf8565b90509392505050565b600080fd5b600081519050611c5d81611219565b92915050565b611c6c816117e2565b8114611c7757600080fd5b50565b600081519050611c8981611c63565b92915050565b60008115159050919050565b611ca481611c8f565b8114611caf57600080fd5b50565b600081519050611cc181611c9b565b92915050565b600060a08284031215611cdd57611cdc611c49565b5b611ce760a06114c7565b90506000611cf784828501611c4e565b6000830152506020611d0b84828501611c7a565b6020830152506040611d1f84828501611c7a565b6040830152506060611d3384828501611c7a565b6060830152506080611d4784828501611cb2565b60808301525092915050565b600060a08284031215611d6957611d686111dd565b5b6000611d7784828501611cc7565b91505092915050565b600082905092915050565b60008190508160005260206000209050919050565b60006020601f8301049050919050565b600082821b905092915050565b600060088302611ded7fffffffffffffffffffffffffffffffffffffffffffffffffffffffffffffffff82611db0565b611df78683611db0565b95508019841693508086168417925050509392505050565b6000819050919050565b6000611e34611e2f611e2a846117e2565b611e0f565b6117e2565b9050919050565b6000819050919050565b611e4e83611e19565b611e62611e5a82611e3b565b848454611dbd565b825550505050565b600090565b611e77611e6a565b611e82818484611e45565b505050565b5b81811015611ea657611e9b600082611e6f565b600181019050611e88565b5050565b601f821115611eeb57611ebc81611d8b565b611ec584611da0565b81016020851015611ed4578190505b611ee8611ee085611da0565b830182611e87565b50505b505050565b600082821c905092915050565b6000611f0e60001984600802611ef0565b1980831691505092915050565b6000611f278383611efd565b9150826002028217905092915050565b611f418383611d80565b67ffffffffffffffff811115611f5a57611f59611467565b5b611f648254611b36565b611f6f828285611eaa565b6000601f831160018114611f9e5760008415611f8c578287013590505b611f968582611f1b565b865550611ffe565b601f198416611fac86611d8b565b60005b82811015611fd457848901358255600182019150602085019450602081019050611faf565b86831015611ff15784890135611fed601f891682611efd565b8355505b6001600288020188555050505b50505050505050565b600060408201905061201c60008301856115ee565b6120296020830184611ba5565b9392505050565b60008151905061203f81611288565b92915050565b60006020828403121561205b5761205a6111dd565b5b600061206984828501612030565b91505092915050565b6000819050602082019050919050565b60007fffffffff0000000000000000000000000000000000000000000000000000000082169050919050565b60006120ba8251612082565b80915050919050565b60006120ce8261178d565b826120d884612072565b90506120e3816120ae565b925060048210156121235761211e7fffffffff0000000000000000000000000000000000000000000000000000000083600403600802611db0565b831692505b5050919050565b60006121358261178d565b61213f81856119fb565b935061214f8185602086016116db565b80840191505092915050565b6000612167828461212a565b91508190509291505056fea2646970667358221220ecbac3a0b9e9a5699110cbdfd6ca849703b23f5305f1227509c28bbc0309057264736f6c63430008140033",
  "linkReferences": {},
  "deployedLinkReferences": {}
}